H0000020063856001476สำนักงาน คปภ. รับสมัครสอบนายหน้าประกันชี031020139281                                                                                                                                                                                        
D000003006385600147603102013093008ประสพ พบวิบัติ                                    999999560900000012  24092013                                06029953CCSH       0000000020000000                                                                             
T000004006385600147600000000000000000000000000020000000001                                                                                                                                                                                                      
