H0000010063856001476สำนักงาน คปภ. รับสมัครสอบนายหน้าประกันชี091020139281                                                                                                                                                                                        
D000002006385600147609102013093008dddd fdfsf                                        999999561000000035  09102013                                06029953CCSH       0000000020000000                                                                             
D000003006385600147609102013093008trtr tgtgg                                        999999561000000034  09102013                                06029953CCSH       0000000020000000                                                                             
D000004006385600147609102013093008dddd fdfsf                                        999999561000000033  09102013                                06029953CCSH       0000000020000000                                                                             
D000005006385600147609102013093008dddd fdfsf                                        999999561000000032  09102013                                06029953CCSH       0000000020000000                                                                             
T000006006385600147600000000000000000000000000080000000004                                                                                                                                                                                                      
