H0000010063856001476สำนักงาน คปภ. รับสมัครสอบนายหน้าประกันชี171220109281                                                                                                                                                                                        
D000002006385600147617122010103201นาง นริศรา ต้องกิ้ม                               0000525171210       3251000017659                           00220927CCSH       0000000020000000                                                                             
D000003006385600147617122010104428นายสุรวิทย์ ลิขิตสกุลสุข                          0000520171210       3310300606160                           06925867CCSH       0000000020000000                                                                             
D000004006385600147617122010110557นางสาว รัตนาภรณ์ ตากิ่มนอก                        0000528171210       3300400033439                           00220927CCSH       0000000020000000                                                                             
D000005006385600147617122010135533นางสาว เสาวลักษณ์ จิตปัญญานุกูล                   0000529171210       3100300513520                           00600443CCSH       0000000020000000                                                                             
D000006006385600147617122010144548นายศุภรัตน์ วังบุญ                                0000533171210       3180300361754                           06099537CCSH       0000000020000000                                                                             
D000007006385600147617122010144856นายศุภรัตน์ วังบุญ                                0000531171210       3180300361754                           06099537CCSH       0000000020000000                                                                             
D000008006385600147617122010152135นางสาวกาญจนา  เกษมุล                              XXXX0000530171210       3900900065253                           07150775CCSH       0000000020000000                                                                             
D000009006385600147617122010154540นางสาวเนาวรัตน์ ใจสูงเนิน                         0000532171210       3309800355261                           00000503CCSH       0000000020000000                                                                             
D000010006385600147617122010164824นายปรีชา วงษ์สุวรรณ                               0000534171210       1711000003932                           08780012CCSH       0000000020000000                                                                             
D000011006385600147617122010170813นางสาวเบญจวรรณ ดำสนวน                             0000527171210       1102000967890                           06911057CCSH       0000000020000000                                                                             
D000012006385600147617122010170934นางสาว วิไลรัตน์ พานิชกิจ                         0000526171210       3119900092256                           06911057CCSH       0000000020000000                                                                             
T000013006385600147600000000000000000000000000220000000011                                                                                                                                                                                                      



Ref.1   1234 XX00001 1308130 